:020000040800F2
:1000000000280020491D0008611B0008671B00082C
:100010006D1B0008731B0008791B0008000000001E
:100020000000000000000000000000007F1B00082E
:100030008B1B000800000000971B0008A31B000892
:10004000911D0008911D0008911D0008911D0008D8
:10005000911D0008911D0008911D0008911D0008C8
:10006000911D0008911D0008911D0008911D0008B8
:10007000911D0008911D0008911D0008911D0008A8
:10008000911D0008911D0008911D0008911D000898
:10009000911D0008911D0008911D0008911D000888
:1000A000911D0008911D0008911D0008911D000878
:1000B000B11B0008911D000800000000911D000800
:1000C000911D00080000000000000000911D0008C4
:1000D00000000000911D0008911D000800000000B4
:1000E000911D0008911D0008911D000800000000EE
:1000F0000000000000000000000000000000000000
:0C01000000000000000000005FF808F1A3
:10010C0010B5054C237833B9044B13B10448AFF345
:10011C0000800123237010BD34000020000000007B
:10012C00C833000808B5034B1BB103490348AFF3B0
:10013C00008008BD0000000038000020C833000813
:10014C0080B483B000AF7860094A7B6852F82330E2
:10015C00012B06D1064A7B68002142F823100123AB
:10016C0000E0002318460C37BD4680BC704700BF2A
:10017C005000002080B483B000AF7860094A7B68DF
:10018C0052F82330012B06D1064A7B68002142F835
:10019C002310012300E0002318460C37BD4680BC19
:1001AC00704700BF5C00002080B582B000AF002318
:1001BC007B607CE0424A7B6852F8232041497B6893
:1001CC0041F82320404A7B6852F823203C497B6845
:1001DC0041F823203D4A7B6852F823203C497B6838
:1001EC0031F813301946104602F0BAF80346194696
:1001FC00354A7B6842F82310324A7B6852F8232038
:10020C002F497B6851F823309A424DD12C4A7B6898
:10021C0052F823202C497B6851F823309A4243D161
:10022C002C4A7B6852F8232027497B6851F82330ED
:10023C009A4219D0244A7B6852F8232025497B68BE
:10024C0041F82320204A7B6852F82330002B2BD115
:10025C00214A7B68012142F82310204A7B684FF425
:10026C00967142F823101FE01C4A7B6852F8233029
:10027C005A1E1A497B6841F82320184A7B6852F8A9
:10028C002330002B10DC154A7B684FF4967142F832
:10029C002310104A7B6852F82330002B04D1104AEB
:1002AC007B68012142F823107B6801337B607B68FB
:1002BC00022B7FF77FAF00BF00BF0837BD4680BD64
:1002CC007400002068000020800000200000002046
:1002DC000C0000208C000020500000209800002012
:1002EC005C00002080B500AF4FF4FA71032001F0E0
:1002FC0077FB0021002001F06BF80021012001F0B8
:10030C0067F80021022001F063F80021032001F0BE
:10031C005FF800BF80BD80B500AF4FF4FA710320C9
:10032C0001F05EFB0021002001F052F801210120B8
:10033C0001F04EF80021022001F04AF801210320BF
:10034C0001F046F800BF80BD80B500AFC94B1B68FB
:10035C00013B042B00F2108201A252F823F000BFE3
:10036C00810300084F040008F1040008DF050008B1
:10037C0099060008002001F069FC002001F08EFCB9
:10038C00002001F0B3FCBB4B02221A6041F2883111
:10039C00002001F025FBB84B1B684FF47A7202FB6E
:1003AC0003F31946012001F01BFBB44B1B684FF4FF
:1003BC007A7202FB03F31946022001F011FBB04BD9
:1003CC0000221A60AE4B00225A60AD4B00229A609C
:1003DC00A94B1B68AB4A82FB03129210DB17D31A92
:1003EC001946002000F0F4FFA34B1A68A54B83FBC1
:1003FC0002139910D317C91A0B469B000B445B00D0
:10040C00D11A012000F0E4FF9C4B1B689D4A82FB33
:10041C0003129210DB17D31A1946022000F0D8FFF2
:10042C00964B1A68974B83FB02139910D317C91A72
:10043C000B469B000B445B00D11A032000F0C8FF55
:10044C00A3E101220121002001F0BCFB00220121CB
:10045C00012001F0D9FB022001F0E2FA0346012B46
:10046C0028D1844B03221A60874B1B684FF47A7295
:10047C0002FB03F31946022001F0B2FA824B1B680F
:10048C00804A82FB03129210DB17D31A1946022002
:10049C0000F09EFF7C4B1A687A4B83FB0213991079
:1004AC00D317C91A0B469B000B445B00D11A0320CF
:1004BC0000F08EFF0020FFF743FE0346012B04D112
:1004CC006C4B0D221A60FFF726FF0220FFF738FE57
:1004DC000346012B40F05281664B09221A60FFF74C
:1004EC0001FF4BE101220121002001F06BFB0122F5
:1004FC000021012001F088FB022001F091FA034653
:10050C00012B4ED15B4B04221A605C4B1B684FF4E1
:10051C007A7202FB03F31946012001F061FA564B83
:10052C001B684FF47A7202FB03F31946022001F0A8
:10053C0057FA524B1B68534A82FB03129210DB177B
:10054C00D31A1946002000F043FF4C4B1A684D4B50
:10055C0083FB02139910D317C91A0B469B000B444B
:10056C005B00D11A012000F033FF434B1B68454A56
:10057C0082FB03129210DB17D31A1946022000F0EB
:10058C0027FF3D4B1A683F4B83FB02139910D3177F
:10059C00C91A0B469B000B445B00D11A032000F0D8
:1005AC0017FF0020FFF7CCFD0346012B04D1314B84
:1005BC000D221A60FFF7AFFE0220FFF7C1FD0346C4
:1005CC00012B40F0DD802B4B09221A60FFF78AFECD
:1005DC00D6E000220121012001F0F4FA01220121D0
:1005EC00002001F011FB012001F01AFA0346012B47
:1005FC0028D1204B05221A60234B1B684FF47A72CA
:10060C0002FB03F31946012001F0EAF91E4B1B68AB
:10061C001C4A82FB03129210DB17D31A19460020D6
:10062C0000F0D6FE184B1A68164B83FB0213991078
:10063C00D317C91A0B469B000B445B00D11A01203F
:10064C0000F0C6FE0020FFF77BFD0346012B04D112
:10065C00084B0D221A60FFF75EFE0220FFF770FDBB
:10066C000346012B40F08E80024B09221A60FFF7E3
:10067C0039FE87E0B00000201C0000202400002080
:10068C0050000020676666662000002001220021D1
:10069C00012001F097FA01220121002001F0B4FAA7
:1006AC00012001F0BDF90346012B4ED15B4B022218
:1006BC001A605B4B1B684FF47A7202FB03F319460A
:1006CC00012001F08DF9574B1B684FF47A7202FB35
:1006DC0003F31946022001F083F9514B1B68524A6F
:1006EC0082FB03129210DB17D31A1946002000F07C
:1006FC006FFE4B4B1A684C4B83FB02139910D317AC
:10070C00C91A0B469B000B445B00D11A012000F068
:10071C005FFE444B1B68444A82FB03129210DB17AA
:10072C00D31A1946022000F053FE3E4B1A683E4B7A
:10073C0083FB02139910D317C91A0B469B000B4469
:10074C005B00D11A032000F043FE0020FFF7F8FCF9
:10075C000346012B04D1314B0D221A60FFF7DBFD50
:10076C000220FFF7EDFC0346012B0DD12B4B092288
:10077C001A60FFF7B7FD07E000BF06E000BF04E01A
:10078C0000BF02E000BF00E000BF244B1B68022B3F
:10079C000BD0224B1B68032B07D0204B1B68042B60
:1007AC0003D01E4B1B68052B36D1032001F038F902
:1007BC000346012B17D11D4B1B685A1C1B490A60A1
:1007CC00184600F06FFD194B1B685A4203F00303E7
:1007DC0002F0030258BF5342144A13604FF4FA71EB
:1007EC00032001F0FDF8042001F01AF90346012B57
:1007FC0012D10F4B5B68013B1946012000F0E8FD5C
:10080C000B4BDB68013B1946032000F0E1FD4FF474
:10081C007A71042001F0E4F800BF80BDB000002024
:10082C001C0000202400002067666666B4000020CF
:10083C00B800002080B500AF814B1B680A3B032B2E
:10084C0000F2408201A252F823F000BFF108000828
:10085C006D0A0008C70B000869080008794B0022D4
:10086C001A60794B00221A60784B00221A60744B84
:10087C000A221A60002001F0E9F9002001F00EFABA
:10088C00002001F033FA4FF4FA71032001F0A8F8BC
:10089C004FF4FA71042001F0A3F86D4B1B686D4AFC
:1008AC0082FB03129210DB17D31A1946002000F0BA
:1008BC008FFD674B1A68674B83FB02139910D31794
:1008CC00C91A0B469B000B445B00D11A012000F0A7
:1008DC007FFD0021022000F07BFD0221032000F0AF
:1008EC0077FDF6E10020FFF72BFC0346012B2CD102
:1008FC00534B0B221A60002001F0A8F9012001F0E3
:10090C00CDF9554B1B68534A82FB03129210DB172F
:10091C00D31A1946002000F05BFD4F4B1A684D4B63
:10092C0083FB02139910D317C91A0B469B000B4477
:10093C005B00D11A012000F04BFD0021022000F0D9
:10094C0047FD0321032000F043FD0120FFF7F8FBD6
:10095C000346012B32D13B4B1B680133394A1360E0
:10096C00384B1A683A4B1B681344632B04DD384B25
:10097C001B685B42334A1360324B1A68344B1B685A
:10098C001344344A82FB03129210DB17D31A194614
:10099C00002000F01DFD2B4B1A682D4B1B681A44D0
:1009AC002C4B83FB02139910D317C91A0B469B00CF
:1009BC000B445B00D11A012000F00AFD0220FFF766
:1009CC00BFFB0346012B25D1214B1A681D4B1B681D
:1009DC0013441F4A13601B4B00221A601C4B1B68EC
:1009EC001C4A82FB03129210DB17D31A1946002003
:1009FC0000F0EEFC164B1A68164B83FB0213991091
:100A0C00D317C91A0B469B000B445B00D11A01206B
:100A1C0000F0DEFC042001F003F80346012B40F04B
:100A2C00538101210D4801F0CAFC08210B4801F04B
:100A3C00C6FC4FF4FA71042000F0D2FF44E100BF71
:100A4C00B0000020A4000020A8000020AC00002072
:100A5C001C0000206766666620000020000801402C
:100A6C000020FFF76DFB0346012B2CD1A94B0C2268
:100A7C001A60002001F012F9012001F037F9A64BA1
:100A8C001B68A64A82FB03129210DB17D31A194675
:100A9C00002000F09DFCA04B1A68A04B83FB0213B6
:100AAC009910D317C91A0B469B000B445B00D11A43
:100ABC00012000F08DFC0021022000F089FC0421B3
:100ACC00032000F085FC0120FFF73AFB0346012BC5
:100ADC0032D1934B1B680133914A1360904B1A68C7
:100AEC00904B1B681344632B04DD8E4B1B685B42DD
:100AFC008B4A13608A4B1A688A4B1B681344874ACB
:100B0C0082FB03129210DB17D31A1946002000F057
:100B1C005FFC834B1A68834B1B681A447F4B83FB27
:100B2C0002139910D317C91A0B469B000B445B0098
:100B3C00D11A012000F04CFC0220FFF701FB034608
:100B4C00012B25D1774B1A68754B1B681344754ADA
:100B5C001360734B00221A60724B1B686F4A82FB46
:100B6C0003129210DB17D31A1946002000F030FC48
:100B7C006C4B1A68694B83FB02139910D317C91A73
:100B8C000B469B000B445B00D11A012000F020FCAB
:100B9C00042000F045FF0346012B40F09780022112
:100BAC00614801F00CFC10215F4801F008FC4FF487
:100BBC00FA71042000F014FF88E00020FFF7C0FA5F
:100BCC000346012B05D1002001F090F8514B012276
:100BDC001A600120FFF7B4FA0346012B32D1534BB4
:100BEC001B680133514A1360504B1A684A4B1B68FF
:100BFC001344632B04DD484B1B685B424B4A136068
:100C0C004A4B1A68444B1B681344444A82FB031238
:100C1C009210DB17D31A1946002000F0D9FB434B76
:100C2C001A683D4B1B681A443C4B83FB021399100A
:100C3C00D317C91A0B469B000B445B00D11A012039
:100C4C0000F0C6FB0220FFF77BFA0346012B25D1EF
:100C5C00314B1A68354B1B6813442F4A1360334BC6
:100C6C0000221A602C4B1B682C4A82FB0312921038
:100C7C00DB17D31A1946002000F0AAFB264B1A6882
:100C8C00264B83FB02139910D317C91A0B469B00F2
:100C9C000B445B00D11A012000F09AFB042000F0F9
:100CAC00BFFE0346012B13D104211F4801F087FB23
:100CBC0020211D4801F083FB4FF4FA71042000F051
:100CCC008FFE05E000BF04E000BF02E000BF00E0C3
:100CDC0000BF032000F0A4FE0346012B17D1144BD8
:100CEC001B685A1C12490A60184600F0DBFA104BBC
:100CFC001B685A4203F0030302F0030258BF53422D
:100D0C000B4A13604FF4FA71032000F069FE00BF28
:100D1C0080BD00BFB000002024000020676666661E
:100D2C00A80000202000002000080140AC0000209A
:100D3C00B400002080B500AF684B1B68092B07D0AE
:100D4C00092B00F3A480072B3BD0082B69D09EE025
:100D5C00002000F07BFF002000F0A0FF002000F03E
:100D6C00C5FF5F4B1B684FF47A7202FB03F3194605
:100D7C00062000F035FE0020FFF7E2F90346012BB8
:100D8C0002D1564B07221A600120FFF7D9F903460E
:100D9C00012B02D1514B08221A60002000F040FEBA
:100DAC000346012B75D14D4B01221A604D4B1B682C
:100DBC004FF47A7202FB03F31946002000F010FE88
:100DCC0067E001220121002000F0FCFE002201213D
:100DDC00012000F019FF0120FFF7B2F90346012BA7
:100DEC0002D13E4B08221A600020FFF7C3F90346DC
:100DFC00012B02D1394B01221A60062000F010FEA3
:100E0C000346012B47D1354B01221A60344B1B682A
:100E1C004FF47A7202FB03F31946062000F0E0FD52
:100E2C0039E000220121012000F0CCFE0122012139
:100E3C00002000F0E9FE0020FFF782F90346012BA9
:100E4C0002D1264B07221A600120FFF793F90346C3
:100E5C00012B05D0062000F0E3FD0346012B02D147
:100E6C001E4B01221A60062000F0DAFD0346012B0E
:100E7C0013D11A4B01221A60194B1B684FF47A726A
:100E8C0002FB03F31946062000F0AAFD05E000BFA3
:100E9C0004E000BF02E000BF00E000BF032000F050
:100EAC00BFFD0346012B17D10F4B1B685A1C0E4973
:100EBC000A60184600F0F6F90B4B1B685A4203F017
:100ECC00030302F0030258BF5342074A13604FF466
:100EDC00FA71032000F084FD00BF80BDB00000203B
:100EEC001800002014000020B400002080B582B04F
:100EFC0000AF78607B68092B00F2808101A252F868
:100F0C0023F000BF390F0008810F0008C90F00083B
:100F1C001110000859100008A1100008E910000871
:100F2C003111000879110008C111000800220121BB
:100F3C00C64801F02CFA00220221C44801F027FA1D
:100F4C0000220421C14801F022FA00220821BF48E6
:100F5C0001F01DFA00221021BC4801F018FA002201
:100F6C002021BA4801F013FA01224021B74801F0C0
:100F7C000EFA67E100220221B44801F008FA0022BF
:100F8C000421B24801F003FA01220121AF4801F01B
:100F9C00FEF901220821AD4801F0F9F901221021D6
:100FAC00AA4801F0F4F901222021A84801F0EFF938
:100FBC0001224021A54801F0EAF943E10022012178
:100FCC00A24801F0E4F900220221A04801F0DFF967
:100FDC00002208219D4801F0DAF9002210219B48DB
:100FEC0001F0D5F900224021984801F0D0F90122F6
:100FFC000421964801F0CBF901222021934801F0FD
:10100C00C6F91FE100220121904801F0C0F900222D
:10101C0002218E4801F0BBF9002204218B4801F01B
:10102C00B6F900220821894801F0B1F900224021CB
:10103C00864801F0ACF901221021844801F0A7F98F
:10104C0001222021814801F0A2F9FBE000220221BB
:10105C007E4801F09CF9002204217C4801F097F9AC
:10106C0000222021794801F092F900224021774892
:10107C0001F08DF901220121744801F088F9012257
:10108C000821724801F083F9012210216F4801F008
:10109C007EF9D7E0002201216C4801F078F900229A
:1010AC0004216A4801F073F900220821674801F015
:1010BC006EF900222021654801F069F900224021D7
:1010CC00624801F064F901220221604801F05FF9E5
:1010DC00012210215D4801F05AF9B3E000220121F0
:1010EC005A4801F054F900220421584801F04FF9F4
:1010FC0000220821554801F04AF9002210215348DA
:10110C0001F045F900222021504801F040F900225D
:10111C0040214E4801F03BF9012202214B4801F0DD
:10112C0036F98FE000220121484801F030F9002205
:10113C000221464801F02BF900220421434801F01A
:10114C0026F901220821414801F021F90122102140
:10115C003E4801F01CF9012220213C4801F017F90E
:10116C0001224021394801F012F96BE000220121E3
:10117C00364801F00CF900220221344801F007F93D
:10118C0000220421314801F002F9002208212F48E5
:10119C0001F0FDF8002210212C4801F0F8F8002293
:1011AC0020212A4801F0F3F800224021274801F0C1
:1011BC00EEF847E000220121244801F0E8F8002273
:1011CC000221224801F0E3F8002204211F4801F01B
:1011DC00DEF8002208211D4801F0D9F80022202158
:1011EC001A4801F0D4F800224021184801F0CFF839
:1011FC0001221021154801F0CAF823E00122012137
:10120C00124801F0C4F801220221104801F0BFF885
:10121C00012204210D4801F0BAF8012208210B48E3
:10122C0001F0B5F801221021084801F0B0F80122B4
:10123C002021064801F0ABF801224021034801F0BF
:10124C00A6F800BF00BF0837BD4680BD000C0140AA
:10125C0080B500AF01220121114801F098F801225C
:10126C0002210F4801F093F8012204210C4801F0EF
:10127C008EF8012208210A4801F089F80122102178
:10128C00074801F084F801222021054801F07FF87D
:10129C0001224021024801F07AF800BF80BD00BF56
:1012AC00000C014080B582B000AF78607B68032BE6
:1012BC0000F2848001A252F823F000BFD91200087A
:1012CC0015130008511300088D13000800224FF469
:1012DC0080713D4801F05BF801224FF400713A48EF
:1012EC0001F055F801224FF48061374801F04FF8B6
:1012FC0001224FF40061344801F049F8334B1B686C
:10130C001846FFF7F3FD5AE001224FF480712E4886
:10131C0001F03DF800224FF400712B4801F037F832
:10132C0001224FF48061284801F031F801224FF47A
:10133C000061254801F02BF8244B5B681846FFF739
:10134C00D5FD3CE001224FF480711F4801F01FF8DD
:10135C0001224FF400711C4801F019F800224FF4DF
:10136C008061194801F013F801224FF4006116480E
:10137C0001F00DF8154B9B681846FFF7B7FD1EE002
:10138C0001224FF48071104801F001F801224FF452
:10139C0000710D4800F0FBFF01224FF480610A48F8
:1013AC0000F0F5FF00224FF40061074800F0EFFF5A
:1013BC00064BDB681846FFF799FD00E000BF00BF45
:1013CC000837BD4680BD00BF00080140B8000020B2
:1013DC0080B483B000AF786039603B68002B05DCCB
:1013EC00074A7B68002142F8231004E004497B681B
:1013FC003A6841F8232000BF0C37BD4680BC7047CB
:10140C00B800002080B500AF00F0BEFC00F038F84A
:10141C0000F0BEF800F070F800F01CF90122002179
:10142C00114800F097F901220021104800F092F9C0
:10143C004FF4FA7200210E4800F08CF901224FF49F
:10144C00FA710C4800F086F901224FF47A710A48BF
:10145C0000F080F9012240F6B831084800F07AF922
:10146C0000F05EFAFCE700BF551A0008B501000851
:10147C00B516000855030008410D00084108000886
:10148C0080B590B000AF07F1180328220021184650
:10149C0001F068FF3B1D00221A605A609A60DA6006
:1014AC001A610223BB610123BB621023FB62002380
:1014BC007B6307F11803184600F09AFF0346002BD4
:1014CC0001D000F005F90F237B600023BB600023E3
:1014DC00FB6000233B6100237B613B1D0021184610
:1014EC0001F008FA0346002B01D000F0F1F800BF20
:1014FC004037BD4680BD000080B586B000AF07F117
:10150C00080300221A605A609A60DA603B46002297
:10151C001A605A601D4B4FF080421A601B4B41F60B
:10152C003F725A60194B00229A60184B0922DA60FC
:10153C00164B00221A61154B00229A61134801F0D8
:10154C0035FB0346002B01D000F0C2F84FF480535A
:10155C00BB6007F1080319460C4801F0B3FC0346C5
:10156C00002B01D000F0B4F800233B6000237B601B
:10157C003B461946054801F08BFE0346002B01D073
:10158C0000F0A6F800BF1837BD4680BDC80000208B
:10159C0080B586B000AF07F1080300221A605A60CC
:1015AC009A60DA60284B9B69274A43F004039361E5
:1015BC00254B9B6903F004037B607B68224B9B6982
:1015CC00214A43F0080393611F4B9B6903F0080306
:1015DC003B603B68002240F6BF711C4800F0D7FE10
:1015EC0000227F211A4800F0D2FE40F6BF73BB6088
:1015FC000123FB6000233B6102237B6107F108039D
:10160C001946124800F030FD7F23BB600123FB60BC
:10161C0000233B6102237B6107F1080319460C4848
:10162C0000F022FD4FF46073BB600023FB600123CC
:10163C003B6107F108031946054800F015FD00BF92
:10164C001837BD4680BD00BF0010024000080140A5
:10165C00000C014080B500AF104801F0F7FAFFF71D
:10166C00F7FD01224FF6FF710D4800F090FE0D4B77
:10167C0001221A604FF4FA71032000F0B1F94FF413
:10168C007A71042000F0ACF94FF47A71052000F067
:10169C00A7F900F023F800BF80BD00BFC8000020F0
:1016AC0000080140B000002080B500AF8021024846
:1016BC0000F085FE00BF80BD0008014080B582B0FF
:1016CC0000AF786000F0BCF800BF0837BD4680BDA5
:1016DC0080B400AF72B600BFFEE7000080B483B0E8
:1016EC0000AF0023FB7129E0FA79194913469B00DE
:1016FC0013449B000B4400221A60FA7914491346D8
:10170C009B0013449B000B44043300221A60FA79AB
:10171C000F4913469B0013449B000B4408330022D3
:10172C001A60FA790A4913469B0013449B000B4438
:10173C000C3300221A70FB790133FB71FB79272BD8
:10174C00D2D900BF00BF0C37BD4680BC704700BF6C
:10175C001001002080B489B000AFF860B9607A60E5
:10176C000023FB7702E0FB7F0133FB77FA7F3249E2
:10177C0013469B0013449B000B441B68002B02D0A8
:10178C00FB7F272BEFD9FB7F282B4FD0BB682B4A35
:10179C00A2FB0323DB08BB617B68284AA2FB032363
:1017AC00DB087B61FA7F244913469B0013449B00A2
:1017BC000B44FA681A60BB69002B0AD1FA7F1E49E8
:1017CC0013469B0013449B000B44043301221A6004
:1017DC0009E0FA7F184913469B0013449B000B4405
:1017EC000433BA691A607B69002B0AD1FA7F12495B
:1017FC0013469B0013449B000B44083301221A60D0
:10180C0009E0FA7F0C4913469B0013449B000B44E0
:10181C0008337A691A60FA7F074913469B00134410
:10182C009B000B440C3300221A7000E000BF2437DD
:10183C00BD4680BC704700BF10010020CDCCCCCC85
:10184C0080B483B000AF0023FB715DE0FA793349BB
:10185C0013469B0013449B000B441B68002B50D079
:10186C00FA792E4913469B0013449B000B44043316
:10187C001B68002B32D1FA79284913469B0013447C
:10188C009B000B440C331B78FA790133D8B22349F3
:10189C0013469B0013449B000B440C3302461A70F6
:1018AC00FA791E4913469B0013449B000B440833E2
:1018BC001B68002B25D0F979FA7918480B469B0048
:1018CC000B449B00034408331968144813469B00CF
:1018DC0013449B0003440433196012E0FA790F4956
:1018EC0013469B0013449B000B4404331B68FA798A
:1018FC00591E0A4813469B0013449B0003440433AF
:10190C001960FB790133FB71FB79272B9ED900BF42
:10191C0000BF0C37BD4680BC704700BF10010020D3
:10192C0080B582B000AF0023FB713AE0FA7921490F
:10193C0013469B0013449B000B440C331B78002B69
:10194C002CD0FA791B4913469B0013449B000B4483
:10195C001B689847FA79174913469B0013449B0060
:10196C000B440C331B78FA79013BD8B2114913465E
:10197C009B0013449B000B440C3302461A70FA79FB
:10198C000C4913469B0013449B000B4408331B6803
:10199C00002B03D1FB79184600F00EF8FB790133CC
:1019AC00FB71FB79272BC1D900BF00BF0837BD469F
:1019BC0080BD00BF1001002080B483B000AF786000
:1019CC0006497A6813469B0013449B000B441B6822
:1019DC00002B00BF0C37BD4680BC704710010020A7
:1019EC0080B483B000AF786039603B68094A82FBF1
:1019FC0003129210DB17D21A07497B6841F8232097
:101A0C00064A7B68002142F8231000BF0C37BD4604
:101A1C0080BC70476766666658040020300400205E
:101A2C0080B483B000AF7860064A7B6852F82330EC
:101A3C00012B01D1012300E0002318460C37BD46D1
:101A4C0080BC70473004002080B483B000AF00230A
:101A5C007B601CE0124A7B6852F82330002B13DDAC
:101A6C000F4A7B6852F823305A1E0D497B6841F8A7
:101A7C0023200B4A7B6852F82330002B04DC094AE4
:101A8C007B68012142F823107B6801337B607B6803
:101A9C00092BDFDD00BF00BF0C37BD4680BC704793
:101AAC00580400203004002080B485B000AF154BE2
:101ABC009B69144A43F001039361124B9B6903F039
:101ACC000103BB60BB680F4BDB690E4A43F08053CC
:101ADC00D3610C4BDB6903F080537B607B680A4B52
:101AEC005B68FB60FB6823F0E063FB60FB6843F022
:101AFC008063FB60044AFB68536000BF1437BD462B
:101B0C0080BC7047001002400000014080B584B0DA
:101B1C0000AF78607B681B68B3F1804F13D10C4B1E
:101B2C00DB690B4A43F00103D361094BDB6903F01A
:101B3C000103FB60FB68002200211C2000F05DFA11
:101B4C001C2000F076FA00BF1037BD4680BD00BFE8
:101B5C000010024080B400AFFEE780B400AFFEE797
:101B6C0080B400AFFEE780B400AFFEE780B400AFF6
:101B7C00FEE780B400AF00BFBD4680BC704780B4A8
:101B8C0000AF00BFBD4680BC704780B400AF00BF43
:101B9C00BD4680BC704780B500AF00F03BF900BF7C
:101BAC0080BD000080B500AF024801F09BF800BF7B
:101BBC0080BD00BFC800002080B400AF00BFBD4690
:101BCC0080BC704780B584B000AFF860B9607A60B3
:101BDC00FB68DBB21A4601210A4800F0D8FBBB684F
:101BEC00DBB21A460221074800F0D1FB7B68DBB25E
:101BFC001A460421034800F0CAFB00BF1037BD464B
:101C0C0080BD00BF0008014080B584B000AFF86013
:101C1C00B9607A60FB68DBB21A4608210A4800F00A
:101C2C00B6FBBB68DBB21A461021074800F0AFFBCD
:101C3C007B68DBB21A462021034800F0A8FB00BFEA
:101C4C001037BD4680BD00BF0008014080B582B092
:101C5C0000AF78607B68002B0DD07B68012B15D111
:101C6C00002201210C4800F092FB002208210A48B6
:101C7C0000F08DFB0BE001220121074800F087FBEF
:101C8C0001220821044800F082FB00E000BF00BFE5
:101C9C000837BD4680BD00BF0008014080B582B04A
:101CAC0000AF78607B68002B0DD07B68012B15D1C1
:101CBC00002202210C4800F06AFB002210210A4885
:101CCC0000F065FB0BE001220221074800F05FFBEE
:101CDC0001221021044800F05AFB00E000BF00BFB5
:101CEC000837BD4680BD00BF0008014080B582B0FA
:101CFC0000AF78607B68002B0DD07B68012B15D171
:101D0C00002204210C4800F042FB002220210A484A
:101D1C0000F03DFB0BE001220421074800F037FBEB
:101D2C0001222021044800F032FB00E000BF00BF7C
:101D3C000837BD4680BD00BF00080140FFF73CFFDF
:101D4C000B480C490C4A002302E0D458C45004330D
:101D5C00C4188C42F9D3094A094C002301E01360E2
:101D6C000432A242FBD301F005FBFFF74BFB70479B
:101D7C0000000020340000200C3400083400002047
:101D8C0084040020FEE7000080B500AF084B1B6800
:101D9C00074A43F010031360032000F023F90F20CF
:101DAC0000F008F8FFF780FE0023184680BD00BF46
:101DBC000020024080B582B000AF7860124B1A68E8
:101DCC00124B1B7819464FF47A73B3FBF1F3B2FB49
:101DDC00F3F3184600F03BF90346002B01D0012326
:101DEC000EE07B680F2B0AD8002279684FF0FF3089
:101DFC0000F003F9064A7B681360002300E001231E
:101E0C0018460837BD4680BD280000203000002051
:101E1C002C00002080B400AF054B1B781A46054BF4
:101E2C001B681344034A136000BFBD4680BC704757
:101E3C00300000208004002080B400AF024B1B68EF
:101E4C001846BD4680BC70478004002080B485B025
:101E5C0000AF78607B6803F00703FB600C4BDB681A
:101E6C00BB60BA684FF6FF031340BB60FB681A02F5
:101E7C00BB68134343F0BF6343F40033BB60044AB5
:101E8C00BB68D36000BF1437BD4680BC704700BF31
:101E9C0000ED00E080B400AF044BDB681B0A03F0DC
:101EAC0007031846BD4680BC704700BF00ED00E03C
:101EBC0080B483B000AF0346FB7197F90730002B59
:101ECC000BDBFB7903F01F02064997F907305B091E
:101EDC00012000FA02F241F8232000BF0C37BD4666
:101EEC0080BC704700E100E080B483B000AF0346D3
:101EFC003960FB7197F90730002B0ADB3B68DAB2CB
:101F0C000C4997F907301201D2B20B4483F8002325
:101F1C000AE03B68DAB20849FB7903F00F03043B93
:101F2C001201D2B20B441A7600BF0C37BD4680BCEE
:101F3C00704700BF00E100E000ED00E080B489B024
:101F4C0000AFF860B9607A60FB6803F00703FB61CF
:101F5C00FB69C3F10703042B28BF0423BB61FB6996
:101F6C000433062B02D9FB69033B00E000237B61A1
:101F7C004FF0FF32BB6902FA03F3DA43BB681A4035
:101F8C007B699A404FF0FF317B6901FA03F3D94327
:101F9C007B680B40134318462437BD4680BC704702
:101FAC0080B582B000AF78607B68013BB3F1807F75
:101FBC0001D301230FE00A4A7B68013B53600F21D8
:101FCC004FF0FF30FFF790FF054B00229A60044B57
:101FDC0007221A60002318460837BD4680BD00BF93
:101FEC0010E000E080B582B000AF78607868FFF751
:101FFC002DFF00BF0837BD4680BD80B586B000AF51
:10200C000346B9607A60FB7300237B61FFF742FFE4
:10201C0078617A68B9687869FFF790FF024697F99A
:10202C000F3011461846FFF75FFF00BF1837BD464B
:10203C0080BD80B582B000AF0346FB7197F90730C5
:10204C001846FFF735FF00BF0837BD4680BD80B589
:10205C0082B000AF78607868FFF7A2FF034618469D
:10206C000837BD4680BD000080B48BB000AF7860EF
:10207C00396000237B6200233B6261E101227B6AB1
:10208C0002FA03F3FB613B681B68FA691340BB61FE
:10209C00BA69FB699A4240F050813B685B68974A89
:1020AC0093425ED0954A934275D8954A934258D044
:1020BC00934A93426FD8934A934252D0914A934297
:1020CC0069D8914A93424CD08F4A934263D88F4A35
:1020DC00934246D08D4A93425DD8122B2AD8122BAC
:1020EC0059D801A252F823F06F21000849210008A9
:1020FC005B2100089D210008A3210008A3210008F2
:10210C00A3210008A3210008A3210008A321000893
:10211C00A3210008A3210008A3210008A321000883
:10212C00A3210008A3210008A321000851210008C5
:10213C0065210008764A934213D02CE03B68DB689B
:10214C003B6229E03B68DB6804333B6224E03B687C
:10215C00DB6808333B621FE03B68DB680C333B6297
:10216C001AE03B689B68002B02D104233B6213E00E
:10217C003B689B68012B05D108233B627B68FA699D
:10218C001A6109E008233B627B68FA695A6103E033
:10219C0000233B6200E000BFBB69FF2B01D87B68CA
:1021AC0001E07B6804337B61BB69FF2B02D87B6A3F
:1021BC009B0002E07B6A083B9B003B617B691A68D1
:1021CC000F213B6901FA03F3DB431A40396A3B697F
:1021DC0001FA03F31A437B691A603B685B6803F0EE
:1021EC008053002B00F0A9804A4B9B69494A43F06D
:1021FC0001039361474B9B6903F00103BB60BB6810
:10220C00454A7B6A9B08023352F82330FB607B6A99
:10221C0003F003039B000F2202FA03F3DB43FA687B
:10222C001340FB607B683D4A93420DD07B683C4A6F
:10223C00934207D07B683B4A934201D1022304E0CE
:10224C00032302E0012300E000237A6A02F0030278
:10225C0092009340FA681343FB602F497B6A9B08FA
:10226C000233FA6841F823203B685B6803F480135F
:10227C00002B06D02C4B9A682B49BB6913438B60FF
:10228C0006E0294B9A68BB69DB43274913408B60F6
:10229C003B685B6803F40013002B06D0224BDA6812
:1022AC002149BB691343CB6006E01F4BDA68BB695D
:1022BC00DB431D491340CB603B685B6803F4003380
:1022CC00002B06D0184B5A681749BB6913434B6057
:1022DC0006E0154B5A68BB69DB43134913404B604E
:1022EC003B685B6803F48033002B1FD00E4B1A68DD
:1022FC000D49BB6913430B601FE000BF0000321097
:10230C0000003110000022100000211000001210FB
:10231C0000001110001002400000014000080140B4
:10232C00000C014000100140000401400B4B1A68E6
:10233C00BB69DB43094913400B607B6A01337B6249
:10234C003B681A687B6A22FA03F3002B7FF496AE83
:10235C0000BF00BF2C37BD4680BC70470004014055
:10236C0080B485B000AF78600B467B807B689A6840
:10237C007B881340002B02D00123FB7301E0002368
:10238C00FB73FB7B18461437BD4680BC704780B48A
:10239C0083B000AF78600B467B8013467B707B78F4
:1023AC00002B03D07A887B681A6103E07B881A04BF
:1023BC007B681A6100BF0C37BD4680BC704780B487
:1023CC0085B000AF78600B467B807B68DB68FB6078
:1023DC007A88FB6813401A04FB68D9437B880B404E
:1023EC001A437B681A6100BF1437BD4680BC704726
:1023FC0080B586B000AF78607B68002B01D10123DB
:10240C0072E27B681B6803F00103002B00F08780ED
:10241C00924B5B6803F00C03042B0CD08F4B5B6866
:10242C0003F00C03082B12D18C4B5B6803F4803344
:10243C00B3F5803F0BD1894B1B6803F40033002BA1
:10244C006CD07B685B68002B68D101234CE27B6805
:10245C005B68B3F5803F06D1804B1B687F4A43F421
:10246C00803313602EE07B685B68002B0CD17B4BB8
:10247C001B687A4A23F480331360784B1B68774AC5
:10248C0023F4802313601DE07B685B68B3F5A02FF9
:10249C000CD1724B1B68714A43F4802313606F4B51
:1024AC001B686E4A43F4803313600BE06B4B1B6864
:1024BC006A4A23F480331360684B1B68674A23F421
:1024CC00802313607B685B68002B13D0FFF7B4FC90
:1024DC00386108E0FFF7B0FC02463B69D31A642B65
:1024EC0001D9032300E25D4B1B6803F40033002B7E
:1024FC00F0D014E0FFF7A0FC386108E0FFF79CFC7B
:10250C0002463B69D31A642B01D90323ECE1534BEC
:10251C001B6803F40033002BF0D100E000BF7B6894
:10252C001B6803F00203002B63D04C4B5B6803F079
:10253C000C03002B0BD0494B5B6803F00C03082BEE
:10254C001CD1464B5B6803F48033002B16D1434BF4
:10255C001B6803F00203002B05D07B681B69012B61
:10256C0001D00123C0E13D4B1B6823F0F8027B68CE
:10257C005B69DB00394913430B603AE07B681B69EC
:10258C00002B20D0364B01221A60FFF755FC386126
:10259C0008E0FFF751FC02463B69D31A022B01D924
:1025AC000323A1E12D4B1B6803F00203002BF0D099
:1025BC002A4B1B6823F0F8027B685B69DB00274918
:1025CC0013430B6015E0264B00221A60FFF734FC16
:1025DC00386108E0FFF730FC02463B69D31A022B46
:1025EC0001D9032380E11D4B1B6803F00203002B70
:1025FC00F0D17B681B6803F00803002B3AD07B6892
:10260C009B69002B19D0174B01221A60FFF714FCA1
:10261C00386108E0FFF710FC02463B69D31A022B25
:10262C0001D9032360E10D4B5B6A03F00203002B1D
:10263C00F0D0012000F09CFA1CE00A4B00221A603A
:10264C00FFF7FAFB38610FE0FFF7F6FB02463B6938
:10265C00D31A022B08D9032346E100BF0010024015
:10266C000000424280044242924B5B6A03F0020338
:10267C00002BE9D17B681B6803F00403002B00F0EE
:10268C00A6800023FB758B4BDB6903F08053002B7A
:10269C000DD1884BDB69874A43F08053D361854B5E
:1026AC00DB6903F08053BB60BB680123FB75824B75
:1026BC001B6803F48073002B18D17F4B1B687E4A78
:1026CC0043F480731360FFF7B7FB386108E0FFF742
:1026DC00B3FB02463B69D31A642B01D9032303E1F4
:1026EC00754B1B6803F48073002BF0D07B68DB68A0
:1026FC00012B06D16F4B1B6A6E4A43F00103136228
:10270C002DE07B68DB68002B0CD16A4B1B6A694A95
:10271C0023F001031362674B1B6A664A23F0040320
:10272C0013621CE07B68DB68052B0CD1614B1B6AC8
:10273C00604A43F0040313625E4B1B6A5D4A43F02C
:10274C00010313620BE05B4B1B6A5A4A23F0010333
:10275C001362584B1B6A574A23F0040313627B68BD
:10276C00DB68002B15D0FFF767FB38610AE0FFF739
:10277C0063FB02463B69D31A41F28832934201D97A
:10278C000323B1E04B4B1B6A03F00203002BEED08A
:10279C0014E0FFF751FB38610AE0FFF74DFB0246EE
:1027AC003B69D31A41F28832934201D903239BE04F
:1027BC00404B1B6A03F00203002BEED1FB7D012B77
:1027CC0005D13C4BDB693B4A23F08053D3617B68DA
:1027DC00DB69002B00F08780364B5B6803F00C0341
:1027EC00082B61D07B68DB69022B46D1334B00226E
:1027FC001A60FFF721FB386108E0FFF71DFB02466A
:10280C003B69D31A022B01D903236DE0294B1B68BA
:10281C0003F00073002BF0D17B681B6AB3F5803F8B
:10282C0008D1244B5B6823F400327B689B682149F8
:10283C0013434B601F4B5B6823F474127B68196A5B
:10284C007B685B6A0B431B4913434B601B4B012298
:10285C001A60FFF7F1FA386108E0FFF7EDFA02466B
:10286C003B69D31A022B01D903233DE0114B1B68A2
:10287C0003F00073002BF0D035E0104B00221A60EF
:10288C00FFF7DAFA386108E0FFF7D6FA02463B693F
:10289C00D31A022B01D9032326E0064B1B6803F045
:1028AC000073002BF0D11EE07B68DB69012B07D194
:1028BC00012319E000100240007000406000424209
:1028CC000B4B5B68FB60FB6803F480327B681B6A14
:1028DC009A4206D1FB6803F470127B685B6A9A42D9
:1028EC0001D0012300E0002318461837BD4680BDF7
:1028FC000010024080B584B000AF786039607B680E
:10290C00002B01D10123D0E06A4B1B6803F00703B5
:10291C003A689A4210D9674B1B6823F00702654945
:10292C003B6813430B60634B1B6803F007033A6867
:10293C009A4201D00123B8E07B681B6803F00203C4
:10294C00002B20D07B681B6803F00403002B05D000
:10295C00594B5B68584A43F4E06353607B681B68CF
:10296C0003F00803002B05D0534B5B68524A43F429
:10297C0060535360504B5B6823F0F0027B689B689C
:10298C004D4913434B607B681B6803F00103002B1C
:10299C0040D07B685B68012B07D1474B1B6803F465
:1029AC000033002B15D101237FE07B685B68022B81
:1029BC0007D1414B1B6803F00073002B09D1012395
:1029CC0073E03D4B1B6803F00203002B01D1012384
:1029DC006BE0394B5B6823F003027B685B6836491C
:1029EC0013434B60FFF728FAF8600AE0FFF724FA6C
:1029FC000246FB68D31A41F28832934201D9032371
:102A0C0053E02D4B5B6803F00C027B685B689B000A
:102A1C009A42EBD1274B1B6803F007033A689A42A2
:102A2C0010D2244B1B6823F0070222493B68134346
:102A3C000B60204B1B6803F007033A689A4201D0E5
:102A4C00012332E07B681B6803F00403002B08D0E1
:102A5C00194B5B6823F4E0627B68DB68164913430F
:102A6C004B607B681B6803F00803002B09D0124BEA
:102A7C005B6823F460527B681B69DB000E491343CF
:102A8C004B6000F021F802460B4B5B681B0903F00E
:102A9C000F030A49CB5C22FA03F3094A1360094B72
:102AAC001B681846FFF786F9002318461037BD46F9
:102ABC0080BD00BF0020024000100240E03300083F
:102ACC00280000202C00002080B487B000AF002329
:102ADC00FB600023BB6000237B6100237B60002331
:102AEC003B611E4B5B68FB60FB6803F00C03042B23
:102AFC0002D0082B03D027E0194B3B6127E0FB6881
:102B0C009B0C03F00F03174AD35C7B60FB6803F448
:102B1C008033002B10D0114B5B685B0C03F001036E
:102B2C00114AD35CBB607B680D4A03FB02F2BB68A5
:102B3C00B2FBF3F37B6104E07B680C4A02FB03F30A
:102B4C007B617B693B6102E0054B3B6100BF3B69EC
:102B5C0018461C37BD4680BC704700BF00100240B1
:102B6C0000127A00F03300080034000800093D0020
:102B7C0080B485B000AF78600A4B1B680A4AA2FB90
:102B8C0003235B0A7A6802FB03F3FB6000BFFB685C
:102B9C005A1EFA60002BF9D100BF00BF1437BD4696
:102BAC0080BC704728000020D34D621080B582B0E5
:102BBC0000AF78607B68002B01D1012341E07B687A
:102BCC0093F83D30DBB2002B06D17B68002283F8F2
:102BDC003C207868FEF79AFF7B68022283F83D2040
:102BEC007B681A687B6804331946104600F056FA65
:102BFC007B68012283F846207B68012283F83E2003
:102C0C007B68012283F83F207B68012283F84020F7
:102C1C007B68012283F841207B68012283F84220E3
:102C2C007B68012283F843207B68012283F84420CF
:102C3C007B68012283F845207B68012283F83D20C4
:102C4C00002318460837BD4680BD000080B485B00F
:102C5C0000AF78607B6893F83D30DBB2012B01D07C
:102C6C00012335E07B68022283F83D207B681B68DA
:102C7C00DA687B681B6842F00102DA607B681B68CB
:102C8C00164A934209D07B681B68B3F1804F04D07D
:102C9C007B681B68124A934211D17B681B689B6846
:102CAC0003F00703FB60FB68062B10D07B681B68E6
:102CBC001A687B681B6842F001021A6007E07B68A7
:102CCC001B681A687B681B6842F001021A600023BB
:102CDC0018461437BD4680BC704700BF002C01401D
:102CEC000004004080B584B000AF78607B681B683E
:102CFC00DB68FB607B681B681B69BB60BB6803F00F
:102D0C000203002B20D0FB6803F00203002B1BD026
:102D1C007B681B686FF002021A617B6801221A77CC
:102D2C007B681B689B6903F00303002B03D0786856
:102D3C0000F098F905E0786800F08BF9786800F0FD
:102D4C009AF97B6800221A77BB6803F00403002B06
:102D5C0020D0FB6803F00403002B1BD07B681B689E
:102D6C006FF004021A617B6802221A777B681B6879
:102D7C009B6903F44073002B03D0786800F072F960
:102D8C0005E0786800F065F9786800F074F97B6804
:102D9C0000221A77BB6803F00803002B20D0FB68D5
:102DAC0003F00803002B1BD07B681B686FF0080234
:102DBC001A617B6804221A777B681B68DB6903F055
:102DCC000303002B03D0786800F04CF905E0786819
:102DDC0000F03FF9786800F04EF97B6800221A7712
:102DEC00BB6803F01003002B20D0FB6803F010032A
:102DFC00002B1BD07B681B686FF010021A617B687C
:102E0C0008221A777B681B68DB6903F44073002B7C
:102E1C0003D0786800F026F905E0786800F019F91D
:102E2C00786800F028F97B6800221A77BB6803F0F9
:102E3C000103002B0CD0FB6803F00103002B07D01F
:102E4C007B681B686FF001021A617868FEF736FC2C
:102E5C00BB6803F08003002B0CD0FB6803F08003ED
:102E6C00002B07D07B681B686FF080021A617868B2
:102E7C0000F06FFABB6803F04003002B0CD0FB682A
:102E8C0003F04003002B07D07B681B686FF04002F7
:102E9C001A61786800F0F8F8BB6803F02003002B87
:102EAC000CD0FB6803F02003002B07D07B681B6859
:102EBC006FF020021A61786800F042FA00BF1037F8
:102ECC00BD4680BD80B584B000AF7860396000230A
:102EDC00FB737B6893F83C30012B01D10223B4E0E7
:102EEC007B68012283F83C207B68022283F83D201A
:102EFC007B681B689B68BB60BB6823F07703BB6077
:102F0C00BB6823F47F43BB607B681B68BA689A601C
:102F1C003B681B68B3F5005F3ED0B3F5005F00F271
:102F2C008780B3F5805F00F08680B3F5805F7FD833
:102F3C00702B1AD0702B7BD8602B50D0602B77D88D
:102F4C00502B3CD0502B73D8402B58D0402B6FD8E3
:102F5C00302B64D0302B6BD8202B60D0202B67D833
:102F6C00002B5CD0102B5AD062E07B6818683B6851
:102F7C0099683B685A683B68DB6800F06AF97B68C3
:102F8C001B689B68BB60BB6843F07703BB607B68C6
:102F9C001B68BA689A604FE07B6818683B68996850
:102FAC003B685A683B68DB6800F053F97B681B6828
:102FBC009A687B681B6842F480429A603CE07B68AC
:102FCC0018683B6859683B68DB681A4600F0CAF819
:102FDC007B681B685021184600F021F92CE07B68B7
:102FEC0018683B6859683B68DB681A4600F0E8F8DB
:102FFC007B681B686021184600F011F91CE07B68A7
:10300C0018683B6859683B68DB681A4600F0AAF8F8
:10301C007B681B684021184600F001F90CE07B68C6
:10302C001A683B681B681946104600F0F8F803E074
:10303C000123FB7300E000BF7B68012283F83D2075
:10304C007B68002283F83C20FB7B18461037BD467A
:10305C0080BD80B483B000AF786000BF0C37BD4634
:10306C0080BC704780B483B000AF786000BF0C3771
:10307C00BD4680BC704780B483B000AF786000BFA1
:10308C000C37BD4680BC704780B483B000AF78600D
:10309C0000BF0C37BD4680BC7047000080B485B0C3
:1030AC0000AF786039607B681B68FB607B682B4ADB
:1030BC00934207D07B68B3F1804F03D07B68284ADA
:1030CC00934208D1FB6823F07003FB603B685B689C
:1030DC00FA681343FB607B68204A934207D07B68F5
:1030EC00B3F1804F03D07B681D4A934208D1FB6833
:1030FC0023F44073FB603B68DB68FA681343FB60A6
:10310C00FB6823F080023B685B691343FB607B68C0
:10311C00FA681A603B689A687B68DA623B681A68DE
:10312C007B689A627B680D4A934203D13B681A69AB
:10313C007B681A637B6801225A617B681B6903F008
:10314C000103002B05D07B681B6923F001027B680F
:10315C001A6100BF1437BD4680BC7047002C01407B
:10316C000004004080B487B000AFF860B9607A60AA
:10317C00FB681B6A7B61FB681B6A23F00102FB681E
:10318C001A62FB689B693B613B6923F0F0033B616E
:10319C007B681B013A6913433B617B6923F00A038B
:1031AC007B617A69BB6813437B61FB683A699A61FE
:1031BC00FB687A691A6200BF1C37BD4680BC704739
:1031CC0080B487B000AFF860B9607A60FB681B6AA6
:1031DC007B61FB681B6A23F01002FB681A62FB68B8
:1031EC009B693B613B6923F470433B617B681B0328
:1031FC003A6913433B617B6923F0A0037B61BB6895
:10320C001B017A6913437B61FB683A699A61FB681D
:10321C007A691A6200BF1C37BD4680BC704780B407
:10322C0085B000AF786039607B689B68FB60FB6899
:10323C0023F07003FB603A68FB68134343F0070309
:10324C00FB607B68FA689A6000BF1437BD4680BC8F
:10325C00704780B487B000AFF860B9607A603B60AB
:10326C00FB689B687B617B6923F47F437B613B68D4
:10327C001A027B681A43BB6813437A6913437B6158
:10328C00FB687A699A6000BF1C37BD4680BC7047EA
:10329C0080B485B000AF786039607B6893F83C30BF
:1032AC00012B01D1022341E07B68012283F83C20F1
:1032BC007B68022283F83D207B681B685B68FB609F
:1032CC007B681B689B68BB60FB6823F07003FB602A
:1032DC003B681B68FA681343FB607B681B68FA68E1
:1032EC005A607B681B68144A934209D07B681B6840
:1032FC00B3F1804F04D07B681B68104A93420CD109
:10330C00BB6823F08003BB603B685B68BA681343FF
:10331C00BB607B681B68BA689A607B68012283F883
:10332C003D207B68002283F83C200023184614378C
:10333C00BD4680BC704700BF002C0140000400401B
:10334C0080B483B000AF786000BF0C37BD4680BC42
:10335C00704780B483B000AF786000BF0C37BD46B7
:10336C0080BC704703460244934200D1704703F877
:10337C00011BF9E770B500260C4D0D4C641BA41015
:10338C00A64209D100F01AF800260A4D0A4C641B1B
:10339C00A410A64205D170BD55F8043B98470136E0
:1033AC00EEE755F8043B98470136F2E70434000881
:1033BC00043400080434000808340008F8B500BFD1
:1033CC00F8BC08BC9E467047F8B500BFF8BC08BCFA
:0433DC009E46704752
:1033E00000000000000000000102030406070809B5
:1033F00002030405060708090A0B0C0D0E0F101036
:0434000001020000C5
:04340400310100088A
:043408000D010008AA
:10340C00000C0140000C0140000C01408000000148
:10341C00000200000500000005000000050000008F
:10342C00020000000300000000127A0010000000EF
:04343C00010000008B
:0400000508001D4989
:00000001FF
